:0300000002000EED
:0C000E00787FE4F6D8FD758125020055CE
:0901B000AA12A91312000380FE3B
:05014E000322FF017413
:10017400E4FDFCC3ED9FEC9E5015E4FBFA0BBB00C1
:0F018400010ABA03F8BBDEF50DBD00010C80E4E3
:010193002249
:0B0153000914FF01BEFF01C1FF01C441
:0301BE00D2B42296
:0301C100C2B422A3
:0301C400B2B422B0
:0E015E000C08FF01A5FF01B9FF00F0FF01250D
:0B01A500E4F5B175B230C2B4C2B5225F
:0501B900D2A9D2AF2223
:1000F000752505AF251525EF602AAA15A91612004A
:10010000038524828523837F647E00120007AA185A
:10011000A9191200038524828523837F647E00123F
:04012000000780CF85
:0101240022B8
:100125008524828523837F327E00120007AA09A9D0
:100135000A120003AA0FA910120003AA20A921126E
:090145000003AA0CA90D0200033D
:07016C00051D0000FF0194D6
:10019400538E7F5389F0E4F58A758CEEC28DD28C30
:0101A4002238
:03000B0002009A56
:10009A00C0E0C0F0C083C082C0D075D000C000C02C
:1000AA0001C002C003C004C005C006C007051EE5A2
:1000BA001E7002051DC39414E51D9400400D751DA4
:1000CA0000751E00AA1BA91C120003D007D006D077
:1000DA0005D004D003D002D001D000D0D0D082D035
:0600EA0083D0F0D0E032EB
:10001A000201B0E493A3F8E493A34003F68001F24B
:10002A0008DFF48029E493A3F85407240CC8C333E7
:10003A00C4540F4420C8834004F456800146F6DFB6
:10004A00E4800B010204081020408090014EE47EF7
:10005A00019360BCA3FF543F30E509541FFEE493AB
:10006A00A360010ECF54C025E060A840B8E493A372
:10007A00FAE493A3F8E493A3C8C582C8CAC583CA9D
:10008A00F0A3C8C582C8CAC583CADFE9DEE780BE55
:01017300008B
:060003008A838982E47388
:00000001FF
